:100000000C9448000C945A000C945A000C945A001A
:100010000C945A000C945A000C945A000C945A00F8
:100020000C945A000C945A000C945A000C945A00E8
:100030000C945A000C945A000C945A000C945A00D8
:100040000C945A000C945A000C945A000C945A00C8
:100050000C945A000C945A000C945A000C945A00B8
:100060000C945A000C945A000C945A000C945A00A8
:100070000C945A000C945A000C945A000C945A0098
:100080000C945A000C945A000C945A000C945A0088
:1000900011241FBECFEFCDBFDFE3DEBF21E3A0E021
:1000A000B0E301C01D92AC30B207E1F70E945C00E2
:1000B0000C94B2000C94000045ED50E32BED30E3BE
:1000C000DA0181E090E0ED91F0E0EE0FFF1FEE5AD3
:1000D000FF4C0190F081E02DC181D281BC010080F4
:1000E00002C0660F771F0A94E2F76983A217B3076D
:1000F00051F781E090E0DA01ED91F0E0EE0FFF1FA3
:10010000EE5AFF4CC081D18169817A817C010880DF
:1001100002C0EE0CFF1C0A94E2F7EB01ED82DFE96E
:1001200006E811E0D15000401040E1F700C00000A7
:100130000190F081E02DC181D281BC01008002C01C
:10014000660F771F0A94E2F76E836FE976E8C1E0E5
:1001500061507040C040E1F700C00000A217B30733
:0801600059F6C9CFF894FFCF56
:00000001FF
