:100000000C9448000C945D000C945D000C945D0011
:100010000C945D000C945D000C945D000C945D00EC
:100020000C945D000C945D000C945D000C945D00DC
:100030000C945D000C945D000C945D000C945D00CC
:100040000C945D000C945D000C945D000C945D00BC
:100050000C945D000C945D000C945D000C945D00AC
:100060000C945D000C945D000C945D000C945D009C
:100070000C945D000C945D000C945D000C945D008C
:100080000C945D000C945D000C945D000C945D007C
:1000900011241FBECFEFCDBFDFE3DEBF10E3A0E032
:1000A000B0E3E4ECF0E002C005900D92A030B1079F
:1000B000D9F70E945F000C9460000C940000FFCF01
:0400C000F894FFCFE2
:00000001FF
