S0200000506C61746550726F746F74797065436F6E74726F6C5F56312E7372656371
S113000011C020C01FC01EC01DC01CC01BC01AC010
S113001019C018C017C016C015C014C013C012C030
S113002011C010C011271FBFCFE3D1E0DEBFCDBF89
S113003020E0A0E4B0E001C01D93A034B207E1F7D2
S11300407ED0A9C0DDCFE09A44B5406844BD44B534
S1130050426044BD40EF41BD12BD0895882311F0B4
S1130060E89A0895E8980895099A089A0B9A0A9AC2
S11300700F9828981F9A389A08958C3039F0823155
S113008041F0893049F41098119A0895109A119802
S113009008951098119808951098119A0895813030
S11300A039F018F0823039F009C0129A1398089583
S11300B01298139A0895129A139A0895129A139AF9
S11300C00895CF93C82FEBDF47E853E141505040E8
S11300D0E9F700C0000082E0E2DF8C2FBFDFCF91A0
S11300E0089550B140B146FB662760F970E0660F91
S11300F0771F55FB552750F9462F452B413019F0F2
S1130100423019F004C08CE0089582E1089589E03A
S1130110089540B154B1852F817090E0880F991FE4
S1130120441F4427441F842B43E084270895CF931E
S1130130C82FEFDF8C1301C08FEFCF91089583DFB9
S113014041E04DBB91DF89E098DF80E0BADFC4E095
S113015081E084DF47EA51E641505040E9F700C0AE
S1130160000080E07BDF47EA51E641505040E9F768
S113017000C00000C15061F7DEEF8D2FD8DFC82F1B
S11301808F3FD9F3AEDF79DF81E0C33009F080E03F
S10D019098DFDC2FF2CFF894FFCFC4
S9030000FC
