S0200000506C61746550726F746F74797065436F6E74726F6C5F56312E7372656371
S113000011C020C01FC01EC01DC01CC01BC01AC010
S113001019C018C017C016C015C014C013C012C030
S113002011C010C011271FBFCFE3D1E0DEBFCDBF89
S113003020E0A0E4B0E001C01D93A034B207E1F7D2
S113004051D076C0DDCFE09A44B5406844BD44B594
S1130050426044BD40EF41BD12BD0895099A089A1B
S11300600B9A0A9A0F9828981F9A389A0895882309
S113007011F0E89A0895E89808958C3039F08231A7
S113008041F0893049F41098119A0895109A119802
S113009008951098119808951098119A0895813030
S11300A039F018F0823039F009C0129A1398089583
S11300B01298139A0895129A139A0895129A139AF9
S11300C00895EDDF47E853E141505040E9F700C09F
S11300D0000082E0E4DF089582B146B1881F8827DA
S11300E0881F0895B0DF41E04DBBB8DF89E0C5DF6C
S11300F080E0E7DFC4E081E0BADF47EA51E641503F
S11301005040E9F700C0000080E0B1DF47EA51E663
S113011041505040E9F700C00000C15061F7DCDFF6
S1130120882319F081E0A3DFFACF80E0A0DFF7CFC6
S1070130F894FFCF6D
S9030000FC
