S01000004C4544426C696E6B2E737265634F
S11300000C9448000C945D000C945D000C945D000D
S11300100C945D000C945D000C945D000C945D00E8
S11300200C945D000C945D000C945D000C945D00D8
S11300300C945D000C945D000C945D000C945D00C8
S11300400C945D000C945D000C945D000C945D00B8
S11300500C945D000C945D000C945D000C945D00A8
S11300600C945D000C945D000C945D000C945D0098
S11300700C945D000C945D000C945D000C945D0088
S11300800C945D000C945D000C945D000C945D0078
S113009011241FBECFEFCDBFDFE3DEBF10E3A0E02E
S11300A0B0E3E3E0F2E002C005900D92A036B107A0
S11300B0D9F70E945F000C94BF000C9400004DEF30
S11300C051E483E092E4DA0161E070E0ED91F0E064
S11300D0EE0FFF1FE050F04DC081D181E981FA811C
S11300E010819B01088002C0220F331F0A94E2F79B
S11300F0212B20838A179B0749F721E030E0DA019E
S1130100ED91F0E0EE0FFF1FE050F04DC081D18182
S1130110E981FA811481B901088002C0660F771F52
S11301200A94E2F7612B64838A179B0749F7E7EA8D
S1130130F1E63197F1F700C00000DA01ED91F0E04B
S1130140EE0FFF1FE050F04D0190F081E02DC181D2
S1130150D2817C818901008002C0000F111F0A94A2
S1130160E2F7602F609567236C83A817B90731F70E
S1130170E7EAF1E63197F1F700C00000C0CFF89448
S1050180FFCFAB
S113018206A00405A00404A00403A00402A0040120
S1130192A00400A0040380040280040180040080FF
S11301A20407600406600405600404600403600438
S11301B20260040160040060040740040640040570
S11301C2400404400403400402400401400400408B
S11301D20405200404200403200402200401200452
S11301E200200407000406000405000404000403BC
S11301F200040200040100040000042C2D2E2F3000
S104020201F6
S1130203EB41E841E541E241DF41DC41D941D641DB
S1130213D341D041CD41CA41C74100000000C4418C
S1130223C141BE41BB41B841B541B241AF41AC410B
S1130233A941A641A34100000000A0419D419A4168
S11302439741944191418E418B418841854182413B
S1130253000000000000FA41F741F441F141EE418E
S9030000FC
