:100000000C9448000C945A000C945A000C945A001A
:100010000C945A000C945A000C945A000C945A00F8
:100020000C945A000C945A000C945A000C945A00E8
:100030000C945A000C945A000C945A000C945A00D8
:100040000C945A000C945A000C945A000C945A00C8
:100050000C945A000C945A000C945A000C945A00B8
:100060000C945A000C945A000C945A000C945A00A8
:100070000C945A000C945A000C945A000C945A0098
:100080000C945A000C945A000C945A000C945A0088
:1000900011241FBECFEFCDBFDFE3DEBF20E3A0E022
:1000A000B0E301C01D92AB30B207E1F70E947A02C3
:1000B0000C94FB020C94000086B180958F7008951B
:1000C000811110C08091480490E080959095807CCB
:1000D0009927082E892F000C881F990B000C881F68
:1000E000991F0895813081F48091A80490E0809553
:1000F0009095807399279595879595958795959572
:10010000879595958795089580E00895CF93C62F9C
:100110000E9460008C1301C08FEFCF910895823050
:1001200009F44DC028F4882361F0813049F1089525
:10013000843009F482C008F461C0853009F4A0C09D
:100140000895662319F0613041F00DC0E0E4F4E059
:1001500088E0858384E0868306C0E0E4F4E088E0FC
:10016000868384E085838FE39FE10197F1F700C0E8
:100170000000E0E4F4E088E0858384E0858308956E
:10018000662319F0613041F00DC0E0E6F4E082E052
:10019000858381E0868306C0E0E6F4E082E0868322
:1001A00081E085838FE39FE10197F1F700C00000B4
:1001B000E0E6F4E082E0858381E0858308956623AC
:1001C00019F0613041F00DC0E0E6F4E080E885838D
:1001D00080E4868306C0E0E6F4E080E8868380E47D
:1001E00085838FE39FE10197F1F700C00000E0E60F
:1001F000F4E080E8858380E485830895662319F020
:10020000613041F00DC0E0E8F4E088E0858384E0EF
:10021000868306C0E0E8F4E088E0868384E0858396
:100220008FE39FE10197F1F700C00000E0E8F4E000
:1002300088E0858384E085830895662319F0613022
:1002400051F011C0E0E6F4E088E0858384E0868325
:100250008093050408C0E0E6F4E088E0868384E04B
:100260008583809306048FE39FE10197F1F700C037
:100270000000E0E6F4E088E0858384E0858308956B
:10028000662319F0613059F013C0E0E6F4E080E233
:10029000858380E1868388E08093050409C0E0E6D9
:1002A000F4E080E2868380E1858388E08093060421
:1002B0008FE39FE10197F1F700C00000E0E6F4E072
:1002C00080E2858380E185830895813079F561300E
:1002D00099F018F06230F9F0089561E080E00E9432
:1002E0008F0061E081E00E948F00E0E0F4E081E0B7
:1002F000858380E18683089561E080E00E948F001D
:1003000060E081E00E948F00E0E0F4E081E086831D
:1003100080E18583089560E080E00E948F00E0E046
:10032000F4E081E0858380E185830895613099F070
:1003300018F06230F9F0089561E083E00E948F00C8
:1003400061E082E00E948F00E0E0F4E082E08583DB
:1003500080E28683089561E083E00E948F0060E080
:1003600082E00E948F00E0E0F4E082E0868380E299
:100370008583089560E083E00E948F00E0E0F4E070
:1003800082E0858380E285830895CF93DF938FE3B6
:1003900080930104A0E4B4E08CE011968C93119753
:1003A0009FEF90936104E0E8F4E0818383E011968D
:1003B0008C9311978183E0E2F4E08FE0828380ECFC
:1003C00012968C931297C0EAD4E080E38A838089E6
:1003D0008860808B81898860818B82898860828B2C
:1003E00083898860838B56968C9156978860569641
:1003F0008C93569757968C915797886057968C9305
:100400008C8988608C8B8D8988608D8B0E945C00C4
:1004100080930730982F917090930930982F98709F
:1004200090930230982F9270909301308470809353
:100430000030DF91CF9108951F93CF93DF93FC019C
:100440002081213049F018F0223059F020C061118C
:100450000DC041110DC01BC061110CC041110CC079
:1004600016C061110BC041110BC011C011E009C0D1
:1004700012E007C012E005C010E003C011E001C0A7
:1004800010E0EC01612F81E00E9465011883DF918B
:10049000CF911F910895EF92FF920F931F93CF93E7
:1004A000C82F8B017A01FB0160810E948600F70151
:1004B00080838F3FC9F0F8018083C1110AC061E0D9
:1004C000F7018081833009F460E084E00E948F00AE
:1004D0000BC0C13049F461E0F7018081833009F439
:1004E00060E085E00E948F00CF911F910F91FF90F7
:1004F000EF900895CF93DF9300D000D0CDB7DEB753
:100500000E94C501E0E4F4E091E0958382E08683F7
:10051000E0E8F4E0958386838EEF89831A828B83EB
:100520001C8261E081E00E94650161E082E00E943E
:1005300065012FEF81EE94E0215080409040E1F77B
:1005400000C0000062E081E00E94650162E082E09C
:100550000E9465012FEF81EE94E021508040904091
:10056000E1F700C0000060E081E00E94650160E00A
:1005700082E00E9465012FEF81EE94E021508040DF
:100580009040E1F700C00000AE014E5F5F4FBE013A
:100590006F5F7F4F80E00E944B02AE014C5F5F4F68
:1005A000BE016D5F7F4F81E00E944B020E945C00A4
:1005B00080930730682F61706093093081FB992721
:1005C00090F99093013082FB442740F9409300302A
:1005D00083FB882780F98093023085E090E30E94B6
:1005E0001C022FEF89EF90E0215080409040E1F70E
:0A05F00000C00000C9CFF894FFCF4F
:00000001FF
