:100000000C9448000C945D000C945D000C945D0011
:100010000C945D000C945D000C945D000C945D00EC
:100020000C945D000C945D000C945D000C945D00DC
:100030000C945D000C945D000C945D000C945D00CC
:100040000C945D000C945D000C945D000C945D00BC
:100050000C945D000C945D000C945D000C945D00AC
:100060000C945D000C945D000C945D000C945D009C
:100070000C945D000C945D000C945D000C945D008C
:100080000C945D000C945D000C945D000C945D007C
:1000900011241FBECFEFCDBFDFE3DEBF10E3A0E032
:1000A000B0E3EFEEF1E002C005900D92A036B1078B
:1000B000D9F70E945F000C94B5000C94000049EE43
:1000C00051E42FEE31E4DA0181E090E0ED91F0E0CF
:1000D000EE0FFF1FE050F04D0190F081E02DC18147
:1000E000D281BC01008002C0660F771F0A94E2F73C
:1000F0006983A217B30751F781E090E0DA01ED912F
:10010000F0E0EE0FFF1FE050F04DC081D18169811A
:100110007A817C01088002C0EE0CFF1C0A94E2F791
:10012000EB01ED82DFE906E811E0D150004010401C
:10013000E1F700C000000190F081E02DC181D28183
:10014000BC01008002C0660F771F0A94E2F76E833D
:100150006FE976E8C1E061507040C040E1F700C04F
:0E0160000000A217B30759F6C9CFF894FFCFDD
:10016E0006A00405A00404A00403A00402A0040138
:10017E00A00400A004038004028004018004008017
:10018E000407600406600405600404600403600450
:10019E000260040160040060040740040640040588
:1001AE0040040440040340040240040140040040A3
:1001BE00040520040420040320040220040120046A
:1001CE0000200407000406000405000404000403D4
:1001DE0000040200040100040000042C2D2E2F3018
:0101EE00010F
:1001EF00D741D441D141CE41CB41C841C541C24194
:1001FF00BF41BC41B941B641B34100000000B0411D
:10020F00AD41AA41A741A441A1419E419B419841C3
:10021F00954192418F41000000008C4189418641F8
:10022F00834180417D417A417741744171416E41F3
:10023F00000000000000E641E341E041DD41DA410A
:00000001FF
